:100000000C942A000C9447000C9447000C94470071
:100010000C9447000C9447000C9447000C94470044
:100020000C9447000C9447000C9447000C94470034
:100030000C9447000C9447000C9447000C94470024
:100040000C9447000C9447000C9447000C94470014
:100050000C94470011241FBECFE5D8E0DEBFCDBF12
:1000600010E0A0E6B0E0ECE5F7E202C005900D92EA
:10007000A83AB107D9F710E0A8EAB0E001C01D9294
:10008000A13BB107E1F70E9412130C94AC130C943E
:100090000000EF92FF920F931F937B018C0120E0F1
:1000A00030E040E05FE40E94F50388238CF0C80153
:1000B000B70120E030E040E05FE40E94C1010E940F
:1000C00055049B01AC01205030404040504806C0D0
:1000D000C801B7010E9455049B01AC01B901CA01D6
:1000E0001F910F91FF90EF900895A0E0B0E0EBE733
:1000F000F0E00C947513DC012B01FA019C91923015
:1001000008F439C1EB018881823008F433C194309E
:1001100069F4843009F02FC111969C91119789815F
:10012000981709F428C1A0E6B0E025C1843009F48D
:1001300021C18230A9F4923009F01DC19A01AD01AC
:1001400088E0EA010990AE01E90109929E0181501F
:10015000C1F7E201898111969C918923818308C1AD
:10016000923009F407C112962D903C901397EB0141
:100170008A819B811496AD90BD90CD90DC901797AD
:10018000EC80FD800E811F819101281B390BB90184
:1001900037FF04C066277727621B730B6032710537
:1001A0000CF061C0121613066CF537014801062EDB
:1001B00004C096948794779467940A94D2F721E0C8
:1001C00030E040E050E004C0220F331F441F551FB1
:1001D0006A95D2F721503040404050402E213F21B7
:1001E00040235123211531054105510521F021E01E
:1001F00030E040E050E079018A01E628F72808293C
:1002000019293CC0232BD1F1260E371E350146019A
:10021000062E04C096948794779467940A94D2F734
:1002200021E030E040E050E004C0220F331F441FC3
:10023000551F6A95D2F721503040404050402A2146
:100240003B214C215D21211531054105510521F04E
:1002500021E030E040E050E059016A01A628B728CB
:10026000C828D9280BC0821593052CF01C01AA249C
:10027000BB24650103C0EE24FF24870111969C91E5
:10028000D20111968C91981709F445C0992339F041
:10029000A80197012A193B094C095D0906C0A6016E
:1002A00095012E193F09400B510B57FD08C01182D3
:1002B0003382228224833583468357831DC081E0A5
:1002C00081833382228288279927DC01821B930B4A
:1002D000A40BB50B84839583A683B7830DC0220F2F
:1002E000331F441F551F24833583468357838281E0
:1002F000938101979383828324813581468157813D
:10030000DA01C9010197A109B1098F5F9F4FAF4F72
:10031000BF4328F30BC0918333822282EA0CFB1C7B
:100320000C1D1D1DE482F5820683178383E0808304
:10033000248135814681578157FF1AC0C901AA27F8
:1003400097FDA095BA2F81709070A070B0705695EF
:10035000479537952795822B932BA42BB52B848318
:100360009583A683B7838281938101969383828349
:10037000DF0101C0D201CD01CDB7DEB7E2E10C94BF
:100380009113A0E2B0E0E7ECF1E00C9481136983F3
:100390007A838B839C832D833E834F835887E9E048
:1003A000EE2EF12CEC0EFD1ECE010196B7010E943F
:1003B0007E058E010F5E1F4FCE010596B8010E948B
:1003C0007E058A8991E089278A8BC701B801AE0131
:1003D000475E5F4F0E9475000E94A904A096E6E068
:1003E0000C949D13A0E2B0E0E8EFF1E00C948113CF
:1003F00069837A838B839C832D833E834F835887C5
:10040000F9E0EF2EF12CEC0EFD1ECE010196B701A6
:100410000E947E058E010F5E1F4FCE010596B8012A
:100420000E947E05C701B801AE01475E5F4F0E9482
:1004300075000E94A904A096E6E00C949D13A0E22A
:10044000B0E0E5E2F2E00C94751369837A838B8364
:100450009C832D833E834F835887CE010196BE0136
:10046000675F7F4F0E947E05CE010596BE016F5EDD
:100470007F4F0E947E059985923088F0898982306D
:10048000C8F0943019F4823051F404C0843029F457
:10049000923081F480E690E0C6C0923049F420E0CA
:1004A0009A858A89981321E02A87CE010996BBC0D4
:1004B000823049F420E09A858A89981321E02A8BBA
:1004C000CE014196B0C02D843E844F8458886D88FB
:1004D0007E888F88988CEE24FF248701AA24BB2471
:1004E000650140E050E060E070E0E0E0F0E0C10174
:1004F00081709070892BE9F0E60CF71C081D191D1E
:100500009A01AB012A0D3B1D4C1D5D1D80E090E062
:10051000A0E0B0E0E614F7040805190520F481E036
:1005200090E0A0E0B0E0BA01A901480F591F6A1F8E
:100530007B1FAA0CBB1CCC1CDD1C97FE08C081E0F5
:1005400090E0A0E0B0E0A82AB92ACA2ADB2A3196B6
:10055000E032F10549F0660C771C881C991C569412
:10056000479437942794C3CFFA85EA892B893C892D
:100570008B859C85280F391F2E5F3F4F17C0CA01FE
:1005800081709070892B61F016950795F794E79428
:1005900080E090E0A0E0B0E8E82AF92A0A2B1B2BC3
:1005A00076956795579547952F5F3F4F77FDE7CF36
:1005B0000CC0440F551F661F771F17FD4160EE0CDE
:1005C000FF1C001F111F21503040403090E05907A0
:1005D00090E0690790E4790760F32B8F3C8FDB0193
:1005E000CA018F779070A070B07080349105A1051A
:1005F000B10561F447FD0AC0E114F10401051105DC
:1006000029F0405C5F4F6F4F7F4F40781A8EFE1786
:1006100011F081E08A8F4D8F5E8F6F8F78A383E01A
:10062000898FCE0149960E94A904A096E2E10C941C
:100630009113A8E1B0E0EFE1F3E00C947D1369833E
:100640007A838B839C832D833E834F835887B9E0C5
:10065000EB2EF12CEC0EFD1ECE010196B7010E948F
:100660007E058E010F5E1F4FCE010596B8010E94D8
:100670007E052985223008F47EC03989323010F495
:10068000B8017CC08A859A8989278A87243011F02D
:10069000223031F4231709F06EC060E670E06EC0BE
:1006A000343039F41D861E861F86188A1C861B86E8
:1006B00004C0323021F484E08987B7015FC02B8504
:1006C0003C858B899C89281B390B3C872B87ED84C3
:1006D000FE840F851889AD88BE88CF88D88CEA142F
:1006E000FB040C051D0540F4EE0CFF1C001F111F40
:1006F000215030403C872B8720E030E040E050E044
:1007000080E090E0A0E0B0E460E070E0EA14FB0478
:100710000C051D0540F0282B392B4A2B5B2BEA18C2
:10072000FB080C091D09B695A79597958795EE0CC2
:10073000FF1C001F111F6F5F7F4F6F31710531F775
:10074000DA01C9018F779070A070B0708034910584
:10075000A105B10561F427FD0AC0E114F10401050A
:10076000110529F0205C3F4F4F4F5F4F20782D87B8
:100770003E874F87588BBE01675F7F4FCB010E943A
:10078000A9046896EAE00C949913A8E1B0E0EBECB8
:10079000F3E00C94811369837A838B839C832D838C
:1007A0003E834F83588789E0E82EF12CEC0EFD1E26
:1007B000CE010196B7010E947E058E010F5E1F4F8C
:1007C000CE010596B8010E947E058985823040F0F1
:1007D0008989823028F0C701B8010E94F60501C05E
:1007E0008FEF6896E6E00C949D13A8E1B0E0EBEF84
:1007F000F3E00C94811369837A838B839C832D832C
:100800003E834F83588789E0E82EF12CEC0EFD1EC5
:10081000CE010196B7010E947E058E010F5E1F4F2B
:10082000CE010596B8010E947E058985823040F090
:100830008989823028F0C701B8010E94F60501C0FD
:100840008FEF6896E6E00C949D13A8E1B0E0EBE230
:10085000F4E00C94811369837A838B839C832D83CA
:100860003E834F83588789E0E82EF12CEC0EFD1E65
:10087000CE010196B7010E947E058E010F5E1F4FCB
:10088000CE010596B8010E947E058985823040F030
:100890008989823028F0C701B8010E94F60501C09D
:1008A00081E06896E6E00C949D13ACE0B0E0EBE5E7
:1008B000F4E00C94851369837A838B839C83CE0147
:1008C0000196BE016B5F7F4F0E947E058D81823055
:1008D00061F1823050F1843021F48E81882351F10E
:1008E0002EC02F81388537FD20C06E812F31310514
:1008F0001CF06623F9F023C08EE190E0821B930B7D
:1009000029853A854B855C8504C056954795379572
:1009100027958A95D2F76623B1F05095409530958A
:1009200021953F4F4F4F5F4F0EC020E030E040E039
:1009300050E009C02FEF3FEF4FEF5FE704C020E02A
:1009400030E040E050E8B901CA012C96E2E00C9496
:10095000A113DF92EF92FF920F931F93FC01E480AB
:10096000F58006811781D1808081823048F480E053
:1009700090E0A0E1B0E0E82AF92A0A2B1B2BA5C0E1
:10098000843009F49FC0823021F4EE24FF248701D3
:1009900005C0E114F1040105110519F4E0E0F0E0EF
:1009A00096C0628173819FEF623879070CF05BC05B
:1009B00022E83FEF261B370B2A3131052CF020E0CF
:1009C00030E040E050E02AC0B801A701022E04C088
:1009D00076956795579547950A94D2F781E090E010
:1009E000A0E0B0E004C0880F991FAA1FBB1F2A9582
:1009F000D2F70197A109B1098E219F21A023B1232C
:100A00000097A105B10521F081E090E0A0E0B0E001
:100A10009A01AB01282B392B4A2B5B2BDA01C90138
:100A20008F779070A070B07080349105A105B105EA
:100A300039F427FF09C0205C3F4F4F4F5F4F04C080
:100A4000215C3F4F4F4F5F4FE0E0F0E02030A0E0EF
:100A50003A07A0E04A07A0E45A0710F0E1E0F0E00E
:100A600079018A0127C06038710564F5FB01E158FE
:100A7000FF4FD801C7018F779070A070B07080349D
:100A80009105A105B10539F4E7FE0DC080E490E0C1
:100A9000A0E0B0E004C08FE390E0A0E0B0E0E80E9A
:100AA000F91E0A1F1B1F17FF05C016950795F7941F
:100AB000E794319687E016950795F794E7948A9521
:100AC000D1F705C0EE24FF248701EFEFF0E06E2F91
:100AD000679566276795902F9F77D794DD24D794E5
:100AE0008E2F8695492F462B582F5D29B701CA01B5
:100AF0001F910F91FF90EF90DF900895FC01DB01B3
:100B0000408151812281622F6F7770E0221F22275E
:100B1000221F9381892F880F822B282F30E0991F65
:100B20009927991F11969C93119721153105A9F5C5
:100B3000411551056105710511F482E037C082E865
:100B40009FEF13969C938E9312979A01AB0167E0E7
:100B5000220F331F441F551F6A95D1F783E08C93F2
:100B60000DC0220F331F441F551F12968D919C916B
:100B70001397019713969C938E931297203080E0E1
:100B8000380780E0480780E4580758F314962D93FF
:100B90003D934D935C93179708952F3F310579F45A
:100BA000411551056105710519F484E08C93089590
:100BB00064FF03C081E08C9312C01C9210C02F57B9
:100BC000304013963C932E93129783E08C9387E0EA
:100BD000440F551F661F771F8A95D1F770641496CE
:100BE0004D935D936D937C93179708951F93DC014C
:100BF000FB019C91923008F447C08081823008F458
:100C000043C0943051F411961C91843099F5818140
:100C1000682F70E0611B71093FC0843021F0923071
:100C200031F48230B9F18181882389F12DC0119688
:100C30001C9111978230F1F081811817D9F4129626
:100C40002D913C911397828193818217930794F0A1
:100C500028173907BCF014968D919D910D90BC9189
:100C6000A02D2481358146815781281739074A07ED
:100C70005B0718F4112341F00AC082179307A407F9
:100C8000B50740F4112319F061E070E005C06FEF83
:100C90007FEF02C060E070E0CB011F910895DF9309
:100CA000CF93CDB7DEB728970FB6F894DEBF0FBE4F
:100CB000CDBF8A836B834C8319828B81883008F087
:100CC000F4C08C81813009F072C08A81282F30E015
:100CD00038872F838F8198858130910549F12F8145
:100CE0003885223031052CF48F819885009761F08A
:100CF0005BC02F8138852230310571F18F81988555
:100D000083309105E9F150C0AAE3B0E0EAE3F0E0F6
:100D10008081482F8B81282F30E081E090E0022EE7
:100D200002C0880F991F0A94E2F7842B8C93BFC0EE
:100D3000A7E3B0E0E7E3F0E08081482F8B81282F24
:100D400030E081E090E0022E02C0880F991F0A94E3
:100D5000E2F7842B8C93ABC0A4E3B0E0E4E3F0E0D3
:100D60008081482F8B81282F30E081E090E0022E97
:100D700002C0880F991F0A94E2F7842B8C9397C0C6
:100D8000A1E3B0E0E1E3F0E08081482F8B81282FE0
:100D900030E081E090E0022E02C0880F991F0A9493
:100DA000E2F7842B8C9383C081E0898380C08C819F
:100DB000882309F077C08A81282F30E03E832D8375
:100DC0008D819E818130910559F12D813E812230A6
:100DD00031052CF48D819E81009769F060C02D81D2
:100DE0003E812230310589F18D819E8183309105CC
:100DF00009F440C054C0AAE3B0E0EAE3F0E0808127
:100E0000482F8B81282F30E081E090E0022E02C035
:100E1000880F991F0A94E2F7809584238C9347C02A
:100E2000A7E3B0E0E7E3F0E08081482F8B81282F33
:100E300030E081E090E0022E02C0880F991F0A94F2
:100E4000E2F7809584238C9332C0A4E3B0E0E4E31E
:100E5000F0E08081482F8B81282F30E081E090E006
:100E6000022E02C0880F991F0A94E2F7809584230E
:100E70008C931DC0A1E3B0E0E1E3F0E08081482F56
:100E80008B81282F30E081E090E0022E02C0880F95
:100E9000991F0A94E2F7809584238C9308C081E01F
:100EA000898305C081E0898302C081E089838981CB
:100EB00028960FB6F894DEBF0FBECDBFCF91DF915D
:100EC0000895DF93CF9300D000D00F92CDB7DEB757
:100ED0008A836B8319828A81282F30E03D832C839B
:100EE0008C819D8181309105D1F02C813D81223012
:100EF00031052CF48C819D81009761F01FC02C81FD
:100F00003D812230310581F08C819D8183309105B6
:100F100081F014C0EAE3F0E08B81808311C0E7E345
:100F2000F0E08B8180830CC0E4E3F0E08B81808370
:100F300007C0E1E3F0E08B81808302C081E0898318
:100F400089810F900F900F900F900F90CF91DF91AC
:100F50000895DF93CF93CDB7DEB728970FB6F894F7
:100F6000DEBF0FBECDBF8A836B834C8319828B811A
:100F7000883008F0F4C08C81813009F072C08A8119
:100F8000282F30E038872F838F8198858130910515
:100F900049F12F813885223031052CF48F819885D5
:100FA000009761F05BC02F8138852230310571F1E7
:100FB0008F81988583309105E9F150C0ABE3B0E0B3
:100FC000EBE3F0E08081482F8B81282F30E081E037
:100FD00090E0022E02C0880F991F0A94E2F7842B3A
:100FE0008C93BFC0A8E3B0E0E8E3F0E08081482F35
:100FF0008B81282F30E081E090E0022E02C0880F24
:10100000991F0A94E2F7842B8C93ABC0A5E3B0E060
:10101000E5E3F0E08081482F8B81282F30E081E0EC
:1010200090E0022E02C0880F991F0A94E2F7842BE9
:101030008C9397C0A2E3B0E0E2E3F0E08081482F18
:101040008B81282F30E081E090E0022E02C0880FD3
:10105000991F0A94E2F7842B8C9383C081E08983E3
:1010600080C08C81882309F077C08A81282F30E0E6
:101070003E832D838D819E818130910559F12D8193
:101080003E81223031052CF48D819E81009769F0DC
:1010900060C02D813E812230310589F18D819E8194
:1010A0008330910509F440C054C0ABE3B0E0EBE3FA
:1010B000F0E08081482F8B81282F30E081E090E0A4
:1010C000022E02C0880F991F0A94E2F780958423AC
:1010D0008C9347C0A8E3B0E0E8E3F0E08081482FBC
:1010E0008B81282F30E081E090E0022E02C0880F33
:1010F000991F0A94E2F7809584238C9332C0A5E36C
:10110000B0E0E5E3F0E08081482F8B81282F30E0CC
:1011100081E090E0022E02C0880F991F0A94E2F746
:10112000809584238C931DC0A2E3B0E0E2E3F0E05D
:101130008081482F8B81282F30E081E090E0022EC3
:1011400002C0880F991F0A94E2F7809584238C933C
:1011500008C081E0898305C081E0898302C081E005
:101160008983898128960FB6F894DEBF0FBECDBF64
:10117000CF91DF910895DF93CF9300D000D00F92ED
:10118000CDB7DEB78A836B8319828A81282F30E03E
:101190003D832C838C819D8181309105D1F02C8100
:1011A0003D81223031052CF48C819D81009761F0C6
:1011B0001FC02C813D812230310581F08C819D81C1
:1011C0008330910581F014C0EBE3F0E08B818083E4
:1011D00011C0E8E3F0E08B8180830CC0E5E3F0E030
:1011E0008B81808307C0E2E3F0E08B81808302C0C3
:1011F00081E0898389810F900F900F900F900F905D
:10120000CF91DF910895DF93CF93CDB7DEB72797C6
:101210000FB6F894DEBF0FBECDBF8A836B835D83AC
:101220004C8319828C819D81009709F478C08B8151
:10123000883008F074C08A81282F30E03F832E83E5
:101240004E815F814130510559F18E819F818230FD
:10125000910534F42E813F812115310569F05CC080
:101260004E815F814230510579F18E819F818330BB
:10127000910509F43DC050C0E9E3F0E08081282FDA
:1012800030E08B81882F90E0A90102C055954795E9
:101290008A95E2F7CA018170EC81FD81808341C0AB
:1012A000E6E3F0E08081282F30E08B81882F90E00A
:1012B000A90102C0559547958A95E2F7CA01817048
:1012C000EC81FD8180832DC0E3E3F0E08081282F55
:1012D00030E08B81882F90E0A90102C05595479599
:1012E0008A95E2F7CA018170EC81FD81808319C083
:1012F000E0E3F0E08081282F30E08B81882F90E0C0
:10130000A90102C0559547958A95E2F7CA018170F7
:10131000EC81FD81808305C081E0898302C081E08A
:101320008983898127960FB6F894DEBF0FBECDBFA3
:10133000CF91DF910895DF93CF9300D00F92CDB777
:10134000DEB789838981282F30E03B832A838A8115
:101350009B81009731F02A813B8121303105A1F03A
:1013600025C0A1E2B0E0E1E2F0E080818E7F8C93C5
:10137000A1E2B0E0E1E2F0E080818D7F8C93E0E2D9
:10138000F0E088E4808312C0A1E2B0E0E1E2F0E0A6
:1013900080818E7F8C93A1E2B0E0E1E2F0E0808179
:1013A0008D7F8C93E0E2F0E08CE080830F900F90D3
:1013B0000F90CF91DF910895DF93CF9300D00F92DC
:1013C000CDB7DEB78B831982E3E2F0E08B818083B7
:1013D000E6E5F0E084E88083E6E5F0E080818823BC
:1013E000DCF7CE0102960E94ED0A8A81883111F065
:1013F00083E0898389810F900F900F90CF91DF91C7
:101400000895DF93CF9300D00F92CDB7DEB78B83D3
:101410001982E3E2F0E08B818083E6E5F0E084E886
:101420008083E6E5F0E080818823DCF7CE01029638
:101430000E94ED0A8A81883211F087E089838981D0
:101440000F900F900F90CF91DF910895DF93CF937E
:1014500000D0CDB7DEB7E6E5F0E084EA8083E6E5CC
:10146000F0E080818823DCF71982CE0102960E9489
:10147000ED0A8A81883011F081E0898389810F909B
:101480000F90CF91DF910895DF93CF93CDB7DEB763
:10149000E6E5F0E084E9808380E0CF91DF91089574
:1014A000DF93CF9300D000D0CDB7DEB79C838B8382
:1014B000A6E5B0E0E6E5F0E0808180648C931982D7
:1014C000CE0102960E94ED0AE6E5F0E080818823D5
:1014D000DCF78A81803511F089E08983E3E2F0E06E
:1014E0008081EB81FC81808389810F900F900F9028
:1014F0000F90CF91DF910895DF93CF9300D000D06C
:10150000CDB7DEB79C838B83A6E5B0E0E6E5F0E0DF
:1015100080818F7B8C931982E6E5F0E080818823BF
:10152000DCF7CE0102960E94ED0A8A81883511F01F
:101530008AE08983E3E2F0E08081EB81FC818083B3
:1015400089810F900F900F900F90CF91DF910895A8
:10155000DF93CF9300D0CDB7DEB71982E6E5F0E098
:1015600084EA8083CE0102960E94ED0AE6E5F0E06F
:1015700080818823DCF78A81803111F082E08983C1
:1015800089810F900F90CF91DF910895DF93CF93D2
:1015900000D0CDB7DEB78A831982E3E2F0E08A811A
:1015A000880F8083E6E5F0E081E88083E6E5F0E0FF
:1015B00080818823DCF7E1E2F0E08081882F90E0F1
:1015C000887F90708034910511F085E0898389814E
:1015D0000F900F90CF91DF910895DF93CF9300D0BC
:1015E000CDB7DEB79A838983E1E2F0E08081887F1E
:1015F000E981FA8180830F900F90CF91DF91089558
:10160000DF93CF93CDB7DEB7EAE3F0E080E78083E6
:10161000E7E3F0E080E88083E4E3F0E01082E1E3D8
:10162000F0E01082EBE3F0E087E08083E8E3F0E0B5
:101630001082E5E3F0E01082E2E3F0E01082CF9167
:10164000DF910895DF93CF93CDB7DEB780E00E949E
:101650009B09CF91DF910895DF93CF9300D000D005
:101660000F92CDB7DEB79D838C83EC81FD818281A3
:101670000E948D0C8B83EC81FD8181810E94D30CB3
:101680008A83EC81FD818081EC81FD812381EC8165
:10169000FD819481622F492F0E94160D89830E943B
:1016A000260A80ED0E94010A80E00E94010A8B81D7
:1016B0000E94010A8A810E94010A89810E94010A0E
:1016C0000E94440A0F900F900F900F900F90CF91AF
:1016D000DF910895AF92BF92CF92DF92EF92FF9287
:1016E0000F931F93DF93CF93CDB7DEB766970FB6F7
:1016F000F894DEBF0FBECDBF0E94260A81ED0E9486
:10170000010ACE0109960E94500A89858B83CE0179
:1017100009960E94500A89858A83CE0109960E9403
:101720007C0A898589830E94440A8B818093AE005C
:101730008A818093AD0089818093AC0089818295F4
:10174000869586958370882F90E0817090708823AD
:1017500081F081E08093AF008981829586958770C2
:10176000882F90E081709070882319F081E0809339
:10177000B000CE0104969B878A87ECEAF0E0FD87F3
:10178000EC87F5E0FE87EC85FD8500808C859D85E6
:1017900001969D878C87EA85FB8500828A859B85DB
:1017A00001969B878A879E8591509E87EE85EE23C2
:1017B00051F720E02C8130E03D8140E04E8180E017
:1017C0008F8190E098852F87388B498B8A8B9B8BF4
:1017D000AF84B888C988DA88EB88FC880D891E89AF
:1017E0002A2D3B2D4C2D5D2D6E2D7F2D802F912F81
:1017F00066960FB6F894DEBF0FBECDBFCF91DF91D6
:101800001F910F91FF90EF90DF90CF90BF90AF901E
:101810000895DF93CF9300D000D000D0CDB7DEB7CE
:101820009E838D83ED81FE8183810E94CC0D8C830C
:10183000ED81FE8182810E948C0D8B83ED81FE8182
:1018400081810E94DA0D8A83ED81FE8180810E9470
:10185000190E89830E94260A80ED0E94010A83E006
:101860000E94010A8C810E94010A8B810E94010A58
:101870008A810E94010A89810E94010A0E94440A09
:1018800026960FB6F894DEBF0FBECDBFCF91DF9185
:101890000895DF93CF9300D000D00F92CDB7DEB77D
:1018A0000E94260A81ED0E94010ACE0105960E943F
:1018B000500A8D818C83CE0105960E94500A8D813D
:1018C0008B83CE0105960E94500A8D818A83CE01BA
:1018D00005960E947C0A8D8189830E94440A8C812E
:1018E0008093AB008B818093AA008A818093A900AA
:1018F00089818093A8008091A8009091A900A0916F
:10190000AA00B091AB00BC01CD010F900F900F90D9
:101910000F900F90CF91DF910895DF93CF9300D078
:1019200000D000D0CDB7DEB78E831B828B818F773E
:101930008B838E818A83198219C08981482F50E058
:101940008A819AE0692F0E945513892F282FCE0192
:101950000496FC01E40FF51F20838A819AE0692F29
:101960000E9455138A8389818F5F898389818230A0
:1019700020F38C81282F8D81882F90E0829592957D
:10198000907F9827807F9827922F982B8B81892B87
:101990008B838B8126960FB6F894DEBF0FBECDBF2A
:1019A000CF91DF910895DF93CF9300D000D000D086
:1019B000CDB7DEB78E831B828B818F778B838E8131
:1019C0008A83198219C08981482F50E08A819AE060
:1019D000692F0E945513892F282FCE010496FC01F0
:1019E000E40FF51F20838A819AE0692F0E94551326
:1019F0008A8389818F5F89838981823020F38C81FA
:101A0000282F8D81882F90E082959295907F98273E
:101A1000807F9827822B8B838B8126960FB6F89434
:101A2000DEBF0FBECDBFCF91DF910895DF93CF937F
:101A3000CDB7DEB72C970FB6F894DEBF0FBECDBF83
:101A40008E836F8348871B828B818F778B838E81F8
:101A50008A83198219C08981482F50E08A819AE0CF
:101A6000692F0E945513892F282FCE010496FC015F
:101A7000E40FF51F20838A819AE0692F0E94551395
:101A80008A8389818F5F89838981823020F38F8166
:101A9000282F30E03C872B878B859C850097F9F0B9
:101AA0002B853C8521303105E9F48B8180648B8363
:101AB0008885282F30E03A87298789859A8500977D
:101AC00031F029853A852130310529F00BC08B8111
:101AD0008F7D8B8307C08B8180628B8303C08B815A
:101AE0008F7B8B838C81282F8D81882F90E082952E
:101AF0009295907F9827807F9827922F982B8B81A3
:101B0000892B8B838B812C960FB6F894DEBF0FBE8A
:101B1000CDBFCF91DF910895DF93CF9300D000D058
:101B200000D0CDB7DEB78E831B828E818A83198267
:101B300019C08981482F50E08A819AE0692F0E945C
:101B40005513892F282FCE010496FC01E40FF51FB1
:101B500020838A819AE0692F0E9455138A838981A4
:101B60008F5F89838981823020F38C81282F8D813A
:101B7000882F90E082959295907F9827807F982774
:101B8000822B8B838B8126960FB6F894DEBF0FBE17
:101B9000CDBFCF91DF910895DF93CF9300D0CDB724
:101BA000DEB78A838A81898389810F900F90CF91D4
:101BB000DF910895DF93CF9300D000D000D0CDB750
:101BC000DEB78E838E818B83198219C08981482F5D
:101BD00050E08B819AE0692F0E945513892F282F9E
:101BE000CE010496FC01E40FF51F20838B819AE05F
:101BF000692F0E9455138B8389818F5F8983898127
:101C0000823020F38C81282F8D81882F90E082955F
:101C10009295907F9827807F9827822B8A838A814C
:101C200026960FB6F894DEBF0FBECDBFCF91DF91E1
:101C30000895DF93CF9300D000D000D0CDB7DEB7AA
:101C40008E838E818B83198219C08981482F50E041
:101C50008B819AE0692F0E945513892F282FCE017E
:101C60000496FC01E40FF51F20838B819AE0692F15
:101C70000E9455138B8389818F5F8983898182308C
:101C800020F38C81282F8D81882F90E0829592956A
:101C9000907F9827807F9827822B8A838A81269637
:101CA0000FB6F894DEBF0FBECDBFCF91DF91089580
:101CB000DF93CF93CDB7DEB7E4970FB6F894DEBFCE
:101CC0000FBECDBF80E063E041E00E944F0680E0A0
:101CD00062E041E00E944F0681E060E041E00E9446
:101CE0004F0681E061E041E00E944F0681E062E042
:101CF00041E00E944F0681E064E041E00E944F060F
:101D000080E090E0A0E7B1E489AB9AABABABBCABB1
:101D100069A97AA98BA99CA920E030E04AE755E49B
:101D20000E941F02DC01CB018DA79EA7AFA7B8AB15
:101D30006DA57EA58FA598A920E030E040E85FE37F
:101D40000E94250488232CF481E090E09CA78BA7B7
:101D50003FC06DA57EA58FA598A920E03FEF4FE776
:101D600057E40E94C50318164CF569A97AA98BA9F6
:101D70009CA920E030E040E251E40E941F02DC0117
:101D8000CB01BC01CD010E944900DC01CB019CA725
:101D90008BA70FC080E991E09AA789A789A59AA58A
:101DA0000197F1F79AA789A78BA59CA501979CA7F6
:101DB0008BA78BA59CA5009769F714C06DA57EA580
:101DC0008FA598A90E944900DC01CB019CA78BA795
:101DD0008BA59CA598A78FA38FA198A50197F1F734
:101DE00098A78FA383E00E94441080E090E0A0EACF
:101DF000B0E48BA39CA3ADA3BEA36BA17CA18DA1DA
:101E00009EA120E030E04AE755E40E941F02DC0179
:101E1000CB018F8F98A3A9A3BAA36F8D78A189A1B5
:101E20009AA120E030E040E85FE30E942504882387
:101E30002CF481E090E09E8F8D8F3FC06F8D78A154
:101E400089A19AA120E03FEF4FE757E40E94C50324
:101E500018164CF56BA17CA18DA19EA120E030E06D
:101E600040E251E40E941F02DC01CB01BC01CD0124
:101E70000E944900DC01CB019E8F8D8F0FC080E94D
:101E800091E09C8F8B8F8B8D9C8D0197F1F79C8FB0
:101E90008B8F8D8D9E8D01979E8F8D8F8D8D9E8DBD
:101EA000009769F714C06F8D78A189A19AA10E944B
:101EB0004900DC01CB019E8F8D8F8D8D9E8D9A8F79
:101EC000898F898D9A8D0197F1F79A8F898F83E099
:101ED0000E94441080E090E0A8ECB2E48D8B9E8BD1
:101EE000AF8BB88F6D897E898F89988D2BEA3AEAFE
:101EF0004AEA50E40E941F02DC01CB01898B9A8BD5
:101F0000AB8BBC8B69897A898B899C8920E030E016
:101F100040E85FE30E94250488231CF481E0888B5D
:101F200091C069897A898B899C8920E030E04FE7EC
:101F300053E40E94C50318160CF07BC06D897E899E
:101F40008F89988D20E030E04AE754E40E9419031D
:101F5000DC01CB018C879D87AE87BF876C857D8533
:101F60008E859F8520E030E04AE755E40E941F02FD
:101F7000DC01CB0188879987AA87BB87688579852B
:101F80008A859B8520E030E040E85FE30E942504DD
:101F900088232CF481E090E09F838E833FC0688586
:101FA00079858A859B8520E03FEF4FE757E40E94C3
:101FB000C50318164CF56C857D858E859F8520E0C0
:101FC00030E040E251E40E941F02DC01CB01BC0181
:101FD000CD010E944900DC01CB019F838E830FC09D
:101FE00080E991E09D838C838C819D810197F1F73D
:101FF0009D838C838E819F8101979F838E838E81A9
:102000009F81009769F724C0688579858A859B85BB
:102010000E944900DC01CB019F838E838E819F81CA
:102020009B838A838A819B810197F1F79B838A83B3
:102030000FC069897A898B899C890E944900DC01DB
:10204000CB01888B8889898389818A95F1F7898377
:1020500083E00E94441082E00E94441088E20E94C3
:1020600044108CE00E94441080E060E00E947512F1
:1020700081E00E944410E4960FB6F894DEBF0FBED4
:10208000CDBFCF91DF910895DF93CF930F92CDB75E
:10209000DEB7898380E063E040E00E94A907898180
:1020A000982F991F9927991F81E064E0492F0E947A
:1020B000A90789818295869586958370982F91705E
:1020C00081E062E0492F0E94A90789818295869567
:1020D0008770982F917081E061E0492F0E94A907D5
:1020E000898182958F70982F917081E060E0492FEF
:1020F0000E94A9070E940C11898186958695869574
:10210000982F917081E064E0492F0E94A90789818E
:1021100086958695982F917081E062E0492F0E9404
:10212000A90789818695982F917081E061E0492FF8
:102130000E94A9078981982F917081E060E0492F62
:102140000E94A9070E940C110F90CF91DF91089572
:10215000DF93CF930F92CDB7DEB7898380E063E042
:1021600041E00E94A907898182958F70982F917014
:1021700081E060E0492F0E94A907898182958695B8
:102180008770982F917081E061E0492F0E94A90724
:1021900089818295869586958370982F917081E0CC
:1021A00062E0492F0E94A9078981982F991F9927DA
:1021B000991F81E064E0492F0E94A9070E940C1139
:1021C0008981982F917081E060E0492F0E94A907D2
:1021D00089818695982F917081E061E0492F0E9456
:1021E000A907898186958695982F917081E062E094
:1021F000492F0E94A9078981869586958695982FF3
:10220000917081E064E0492F0E94A9070E940C119F
:102210000F90CF91DF910895DF93CF93CDB7DEB7C5
:10222000A6970FB6F894DEBF0FBECDBF80E062E088
:1022300041E00E94A90780E090E0A0E8BFE38BA303
:102240009CA3ADA3BEA36BA17CA18DA19EA12BEAF3
:102250003AEA4AEA50E40E941F02DC01CB018F8F68
:1022600098A3A9A3BAA36F8D78A189A19AA120E010
:1022700030E040E85FE30E94250488231CF481E0FD
:102280008E8F91C06F8D78A189A19AA120E030E056
:102290004FE753E40E94C50318160CF07BC06BA1F6
:1022A0007CA18DA19EA120E030E04AE754E40E9489
:1022B0001903DC01CB018A8F9B8FAC8FBD8F6A8D98
:1022C0007B8D8C8D9D8D20E030E04AE755E40E94A7
:1022D0001F02DC01CB018E8B9F8BA88FB98F6E897B
:1022E0007F89888D998D20E030E040E85FE30E948F
:1022F000250488232CF481E090E09D8B8C8B3FC0DB
:102300006E897F89888D998D20E03FEF4FE757E4F4
:102310000E94C50318164CF56A8D7B8D8C8D9D8DA2
:1023200020E030E040E251E40E941F02DC01CB01DA
:10233000BC01CD010E944900DC01CB019D8B8C8B3F
:102340000FC080E991E09B8B8A8B8A899B890197DA
:10235000F1F79B8B8A8B8C899D8901979D8B8C8B48
:102360008C899D89009769F724C06E897F89888D43
:10237000998D0E944900DC01CB019D8B8C8B8C894F
:102380009D89998B888B888999890197F1F7998B19
:10239000888B0FC06F8D78A189A19AA10E944900F6
:1023A000DC01CB018E8F8E8D8F878F858A95F1F71B
:1023B0008F8780E062E040E00E94A90780E090E023
:1023C000A0E0B0E48B879C87AD87BE876B857C855A
:1023D0008D859E8520E030E04AE755E40E941F028B
:1023E000DC01CB018F839887A987BA876F817885B5
:1023F00089859A8520E030E040E85FE30E9425046B
:1024000088232CF481E090E09E838D833FC06F8110
:10241000788589859A8520E03FEF4FE757E40E9451
:10242000C50318164CF56B857C858D859E8520E04F
:1024300030E040E251E40E941F02DC01CB01BC010C
:10244000CD010E944900DC01CB019E838D830FC02A
:1024500080E991E09C838B838B819C810197F1F7CC
:102460009C838B838D819E8101979E838D838D813B
:102470009E81009769F714C06F81788589859A8558
:102480000E944900DC01CB019E838D838D819E815A
:102490009A83898389819A810197F1F79A83898345
:1024A000A6960FB6F894DEBF0FBECDBFCF91DF91D9
:1024B0000895DF93CF9300D0CDB7DEB79A83898399
:1024C0000AC0E981FA8180810E949C1289819A81E7
:1024D00001969A838983E981FA818081882389F72B
:1024E0000F900F90CF91DF910895DF93CF9300D09D
:1024F00000D0CDB7DEB789836A838981282F30E089
:102500003C832B838B819C81009731F02B813C8114
:102510002130310531F009C08A8180580E94441071
:1025200004C08A8180540E9444100F900F900F9035
:102530000F90CF91DF910895DF93CF930F92CDB796
:10254000DEB7898389810E94A8100F90CF91DF9117
:102550000895DF93CF93CDB7DEB781E00E9444109A
:10256000CF91DF910895DF93CF93CDB7DEB782E0AF
:102570000E944410CF91DF910895DF93CF9300D054
:102580000F92CDB7DEB78B831A8219828B8180338D
:1025900078F08B818A3360F48B81882F90E09C01E6
:1025A0002053304089819A81820F931F9A838983B7
:1025B00089819A810F900F900F90CF91DF910895AC
:1025C000DF93CF9300D000D000D0CDB7DEB79E838D
:1025D0008D838D810E94BD129C838B8316C08D815B
:1025E0009E812AE030E0B9010E9461139A838983B9
:1025F00089810E949C128D819E812AE030E0B90180
:102600000E946113CB019E838D838D819E810097F3
:1026100031F726960FB6F894DEBF0FBECDBFCF912F
:10262000DF910895DF93CF93CDB7DEB763970FB6F1
:10263000F894DEBF0FBECDBF0E94000B0E94580E63
:102640000E94220B80E00E949B090E946A0B2A874D
:102650003B874C875D876E87CE010196988B8F876D
:10266000FE013A96FA8BE98BF5E0FB8BE989FA8952
:10267000008089899A8901969A8B898BEF85F889E0
:1026800000828F8598890196988B8F879B899150BE
:102690009B8BEB89EE2351F70E94490CDC01CB01A7
:1026A0008E839F83A887B987FFCF991B79E004C0E9
:1026B000991F961708F0961B881F7A95C9F7809581
:1026C0000895AA1BBB1B51E107C0AA1FBB1FA61779
:1026D000B70710F0A61BB70B881F991F5A95A9F7CB
:1026E00080959095BC01CD0108952F923F924F9215
:1026F0005F926F927F928F929F92AF92BF92CF9292
:10270000DF92EF92FF920F931F93CF93DF93CDB79A
:10271000DEB7CA1BDB0B0FB6F894DEBF0FBECDBF12
:1027200009942A88398848885F846E847D848C84E3
:102730009B84AA84B984C884DF80EE80FD800C81EC
:102740001B81AA81B981CE0FD11D0FB6F894DEBFCF
:0C2750000FBECDBFED010895F894FFCF3F
:10275C000000000000000000020017151F00000020
:10276C000000000407040C18040A00151F000000E8
:10277C00060E04040404000000000E0A0E020408F5
:10278C000000000007040C180000040A1B0A0400D7
:08279C00000007041F0000000B
:00000001FF
